:020000040800F2
:100000008007002089010008D91200087F1200082B
:10001000D5120008D502000865170008000000008E
:100020000000000000000000000000004113000874
:10003000D9020008000000001513000899130008F9
:10004000A3010008A3010008A3010008A301000800
:10005000A3010008A3010008A3010008A3010008F0
:10006000A3010008A3010008A3010008A3010008E0
:10007000A3010008A3010008A3010008A3010008D0
:10008000A3010008A3010008A3010008A3010008C0
:10009000A3010008A3010008A3010008A3010008B0
:1000A000A3010008A3010008A3010008A3010008A0
:1000B000A3010008A3010008A3010008A301000890
:1000C000A3010008A3010008A3010008A301000880
:1000D000A301000825170008A3010008A3010008D8
:1000E000A3010008A3010008A301000800F002F822
:1000F00000F03AF80AA090E8000C82448344AAF188
:100100000107DA4501D100F02FF8AFF2090EBAE885
:100110000F0013F0010F18BFFB1A43F0010318473B
:100120008C180000AC180000103A24BF78C878C1C1
:10013000FAD8520724BF30C830C144BF04680C60ED
:10014000704700000023002400250026103A28BF35
:1001500078C1FBD8520728BF30C148BF0B60704739
:100160001FB51FBD10B510BD00F06EF81146FFF7AA
:10017000F7FF01F075FB00F0A0F803B4FFF7F2FF02
:1001800003BC01F0F1FA0000094880470948004724
:10019000FEE7FEE7FEE7FEE7FEE7FEE7FEE7FEE737
:1001A000FEE7FEE704480549054A064B7047000094
:1001B000A1130008ED000008800100208007002046
:1001C0008003002080030020704700000FB4044922
:1001D00010B503AA029800F009F810BC5DF814FBF2
:1001E000080000207047704770477047074B70B594
:1001F0000D467B4400F011F80446284600F020F834
:1002000010B14FF0FF3070BD204670BD4F1600009A
:1002100001694A1C02610878704700B58FB0CDE9CA
:1002200001310021059105497944CDE903101146BA
:10023000684600F02EF80FB000BD0000E5FFFFFF9C
:10024000007B00F080007047754600F03FF8AE4636
:1002500005006946534620F00700854618B020B5D2
:10026000FFF7A0FFBDE820404FF000064FF0000769
:100270004FF000084FF0000B21F00701AC46ACE84E
:10028000C009ACE8C009ACE8C009ACE8C0098D46BB
:1002900070472DE9F04106460024D6E90170F56863
:1002A0008046304603E04146B847641C3046A847C4
:1002B0000028F8D12046BDE8F08110B50446AFF320
:1002C00000802046BDE81040FFF757BF0048704748
:1002D0001C01002000BFFEE77047000070B5044617
:1002E000002594F82100022803D00420A0630125F2
:1002F00048E02068006820F00E002168086020684F
:10030000006820F00100216808601F4920688842C9
:1003100001D1012026E01C4914312068884201D116
:1003200010201FE0184928312068884201D180152B
:1003300018E015493C312068884201D1801411E051
:10034000114950312068884202D14FF4803009E0D1
:100350000D4964312068884202D14FF4801001E0D9
:100360004FF08070084908394860012084F8210066
:1003700000BF002084F8200000BF606B10B1204651
:10038000616B8847284670BD080002402DE9F84798
:1003900003460024002000258446002700226EE149
:1003A0004FF0010808FA02F4D1F8008008EA0400CE
:1003B000A0427DD1DFF8D0A2D1F80480A8EB0A09D1
:1003C000D0453AD014DCB8F1030F50D009DCB8F1B5
:1003D000000F31D0B8F1010F1CD0B8F1020F49D194
:1003E00020E0B8F1110F18D0B8F1120F42D11EE081
:1003F000B9F5881F25D006DCB9F5803F20D0B9F5C6
:10040000801F37D11AE0B9F5001F18D0B9F5041FC5
:1004100030D117E0D1F80CC02DE0D1F80C8008F1F4
:10042000040C28E0D1F80C8008F1080C23E0D1F886
:100430000C8008F10C0C1EE000BF00BF00BF00BF25
:1004400000BF00BFD1F80880B8F1000F02D14FF013
:10045000040C0BE0D1F80880B8F1010F03D14FF084
:10046000080C1C6102E04FF0080C5C6103E04FF0E7
:10047000000C00E000BF00BFFF2801D8984601E053
:1004800003F104084646FF2802D84FEA820803E039
:10049000A2F108084FEA88084746D6F800804FF0D6
:1004A0000F0909FA07F928EA09080CFA07F900E028
:1004B00088E048EA0908C6F80080D1F8048008F00E
:1004C0008058B8F1805F7DD100BFDFF8C081D8F8D7
:1004D000188048F00108DFF8B491C9F81880C846C0
:1004E000D8F8188008F00108CDF8008000BF00BFE0
:1004F0004FEAB9384FEA920958F829504FEA827802
:100500004FEA18794FF00F0808FA09F825EA0805AC
:10051000DFF87C81434502D14FF0000816E0DFF898
:100520007481434502D14FF001080FE0DFF8688184
:10053000434502D14FF0020808E0DFF860814345EF
:1005400002D14FF0030801E04FF004084FEA82792E
:100550004FEA197908FA09F848EA0505DFF84081F9
:100560004FEA920948F82950D1F8048008F48038FD
:10057000B8F5803F0AD1DFF82C81D8F8008048EA2E
:100580000008DFF82091C9F8008009E0DFF8148145
:10059000D8F8008028EA0008DFF80891C9F8008040
:1005A000D1F8048008F40038B8F5003F10D1DFF826
:1005B000F48008F10408D8F8008048EA0008DFF861
:1005C000E49000E05AE009F10409C9F800800DE068
:1005D000DFF8D08008F10408D8F8008028EA000885
:1005E000DFF8C09009F10409C9F80080D1F804804F
:1005F00008F48018B8F5801F0ED1DFF8A88008F144
:100600000808D8F8008048EA0008DFF8989009F157
:100610000809C9F800800DE0DFF8888008F10808B3
:10062000D8F8008028EA0008DFF8789009F1080976
:10063000C9F80080D1F8048008F40018B8F5001F4C
:100640000ED1DFF8608008F10C08D8F8008048EA85
:100650000008DFF8509009F10C09C9F800800DE09E
:10066000DFF8408008F10C08D8F8008028EA00087C
:10067000DFF8309009F10C09C9F80080521C102AEB
:10068000FFF48EAEBDE8F8870000111000100240A4
:1006900000080140000C014000100140001401401E
:1006A00008000140000401400AB1016101E00B04AF
:1006B0000361704701480068704700001000002087
:1006C00002480068401C0149086070471000002083
:1006D00010B50848006840F0100006490860052081
:1006E00000F06AF80F2000F007F800F019F8002079
:1006F00010BD00000020024070B5044607480068A5
:100700004FF47A71B0FBF1F5284600F0E1FB0022CE
:100710002146501E00F012F8002070BD000000209D
:10072000704700BF00F01F02012191404209920072
:1007300002F1E022C2F8001100BF70472DE9F05F1E
:1007400080460D461646002700F0C8FD074639468C
:100750002A46334601F00700C0F1070ABAF1040F38
:1007600002D94FF0040A01E0C0F1070AD14600F1B6
:10077000040ABAF1070F02D24FF0000A01E0A0F11B
:10078000030AD4464FF0010A0AFA09FAAAF1010A4B
:100790000AEA020A0AFA0CFA4FF0010B0BFA0CFBF8
:1007A000ABF1010B0BEA030B4AEA0B04214640466E
:1007B00000F09CFDBDE8F09F00BF00F00702064B73
:1007C00019684FF6FF031940044B0B4343EA02211B
:1007D000014B196000BF70470CED00E00000FA0506
:1007E00070B504460D4600266248006800F0070018
:1007F000A8420ED25F48006820F0070028435D49F8
:1008000008600846006800F00700A84201D00120F7
:1008100070BD207800F00200022807D156484068D9
:1008200020F0F000A168084353494860207800F0A8
:10083000010000285DD06068012806D14E4800689C
:1008400000F4003090B90120E2E76068022806D188
:100850004948006800F0007040B90120D8E74648D8
:10086000006800F0020008B90120D1E74248406862
:1008700020F00300616808433F494860FFF71AFF12
:1008800006466068012810D108E0FFF713FF801BBF
:1008900041F28831884201D90320B9E736484068DF
:1008A00000F00C000428F0D123E06068022810D189
:1008B00008E0FFF7FFFE801B41F28831884201D932
:1008C0000320A5E72C48406800F00C000828F0D170
:1008D0000FE008E0FFF7EEFE801B41F2883188420E
:1008E00001D9032094E72448406800F00C00002858
:1008F000F0D12048006800F00700A8420ED91D483A
:10090000006820F0070028431A490860084600687C
:1009100000F00700A84201D0012079E7207800F01C
:100920000400042807D11448406820F4E060E1681E
:10093000084311494860207800F00800082808D1D1
:100940000D48406820F46050216940EAC1000A491E
:10095000486000F03DF808494968C1F30311074AAF
:10096000515CC840064908600F20FFF7C5FE002013
:100970004EE70000002002400010024094190008D9
:1009800000000020014800687047000000000020BF
:1009900000B5FFF7F7FF04494968C1F30221034A94
:1009A000515CC84000BD000000100240A4190008BE
:1009B00000B5FFF7E7FF04494968C1F3C221034AC4
:1009C000515CC84000BD000000100240A41900089E
:1009D000F0B585B00FF2700C9CE8E01001A8A0E81B
:1009E000E0101DA52D6800950021002400220023A1
:1009F00000201A4D696801F00C05FDB1042D02D0EC
:100A0000082D1AD101E016481AE001ADC1F3834662
:100A1000AB5D01F480355DB1104D6D68C5F34045A7
:100A20001DF805400E4DB5FBF4F505FB03F202E0A1
:100A30000C4D03FB05F2104602E000BF084800BF62
:100A400000BF05B0F0BD0000020304050607080959
:100A50000A0B0C0D0E0F10100102000000100240D6
:100A600000127A0000093D00F8B504460025207800
:100A700000F00100002878D0F848406800F00C0031
:100A800004280CD0F548406800F00C00082811D16B
:100A9000F248406800F48030B0F5803F0AD1EF485A
:100AA000006800F4003000285FD0606800285CD146
:100AB0000120F8BD00BF6068B0F5803F06D1E7486F
:100AC000006840F48030E549086028E0606858B963
:100AD000E248006820F48030E04908600846006879
:100AE00020F4802008601AE06068B0F5A02F0BD1D8
:100AF000DA48006840F48020D84908600846006859
:100B000040F4803008600AE0D448006820F4803067
:100B1000D24908600846006820F48020086000BFC1
:100B2000606888B1FFF7C6FD054606E0FFF7C2FD25
:100B3000401B642801D90320BBE7C848006800F4C3
:100B400000300028F2D010E0FFF7B4FD054606E0C3
:100B5000FFF7B0FD401B642801D90320A9E7BF4877
:100B6000006800F400300028F2D1207800F0020084
:100B7000022857D1B948406800F00C0050B1B7487E
:100B8000406800F00C00082818D1B448406800F410
:100B9000803098B9B148006800F0020020B12069A7
:100BA000012801D0012084E7AC48006820F0F8005B
:100BB000616940EAC100A949086033E02069E8B1F1
:100BC0000120A7490860FFF775FD054606E0FFF71D
:100BD00071FD401B022801D903206AE79F48006885
:100BE00000F002000028F2D09C48006820F0F800D5
:100BF000616940EAC1009949086013E00020984902
:100C00000860FFF757FD054606E0FFF753FD401B60
:100C1000022801D903204CE79048006800F0020048
:100C20000028F2D1207800F0080008282DD1A06912
:100C3000B8B101208B490860FFF73CFD054606E08E
:100C4000FFF738FD401B022801D9032031E7834814
:100C5000406A00F002000028F2D0012000F05CFBA6
:100C600013E000207F490860FFF724FD054606E0F9
:100C7000FFF720FD401B022801D9032019E7774820
:100C8000406A00F002000028F2D1207800F0040051
:100C9000042873D100267148C06900F0805070B9F3
:100CA00000BF6E48C06940F080506C49C86108467A
:100CB000C06900F08050009000BF00BF01266A4864
:100CC000006800F48070B0B96748006840F4807034
:100CD00065490860FFF7EEFC054606E0FFF7EAFC11
:100CE000401B642801D90320E3E65F48006800F454
:100CF00080700028F2D000BFE068012806D1574874
:100D0000006A40F001005549086227E0E06858B9E0
:100D10005248006A20F00100504908620846006A03
:100D200020F00400086219E0E06805280BD14B4868
:100D3000006A40F00400494908620846006A40F031
:100D4000010008620AE04548006A20F001004349BA
:100D500008620846006A20F00400086200BFE068EC
:100D6000A0B1FFF7A7FC054609E0FFF7A3FC401B75
:100D700041F28831884202D903209AE622E03748BE
:100D8000006A00F002000028EFD012E0FFF792FCAA
:100D9000054608E0FFF78EFC401B41F2883188428F
:100DA00001D9032085E62D48006A00F002000028E2
:100DB000F0D1012E05D12948C06920F08050274983
:100DC000C86100BFE069C8B32448406800F00C0067
:100DD000082860D0E069022848D100202049086630
:100DE000FFF768FC054606E0FFF764FC401B02289D
:100DF00001D903205DE61948006800F00070002862
:100E0000F2D1206AB0F5803F07D11448406820F441
:100E10000030A168084311494860D4E9080108433B
:100E20000E49496821F4741108430C4948600120B7
:100E30000B490866FFF73EFC054607E02DE0FFF78B
:100E400039FC401B022801D9032032E60348006820
:100E500000F000700028F2D01FE0000000100240F7
:100E600000004242800442420070004000200C49D1
:100E70000866FFF71FFC054606E0FFF71BFC401B5A
:100E8000022801D9032014E60648006800F000702B
:100E90000028F2D101E001200BE6002009E6000065
:100EA0000000424200100240042808D14FF0E02127
:100EB000096941F004014FF0E022116107E04FF0B1
:100EC000E021096921F004014FF0E022116170472F
:100ED00070B504462546681EB0F1807F01D301201D
:100EE0000FE0681E4FF0E02148610F214FF0FF3006
:100EF00000F0FCF900204FF0E02188610720086134
:100F0000002070BD704701460022002391F839206F
:100F100091F83A3042EA0300704700002DE9F047AB
:100F20000446206805682068C668206847694FF055
:100F30000008C14605F00F08B8F1000F0AD105F00E
:100F4000200038B106F0200020B1204600F07EFAE3
:100F5000BDE8F087B8F1000F6DD007F0010018B9B7
:100F600006F49070002866D005F0010030B106F458
:100F7000807018B1E06B40F00100E06305F0040000
:100F800030B107F0010018B1E06B40F00200E063FF
:100F900005F0020030B107F0010018B1E06B40F03D
:100FA0000400E06305F0080030B107F0010018B15B
:100FB000E06B40F00800E063E06B68B305F02000F0
:100FC00028B106F0200010B1204600F03FFA20685A
:100FD0004069C0F38019E06B00F0080010B9B9F166
:100FE000000F22D0204600F011FA2068406900F07E
:100FF0004000B0B12068406920F04000216848619D
:10100000606B50B11748616B4863606BFFF766F91E
:1010100010B1606B416B88470CE02046FFF772FF10
:1010200008E02046FFF76EFF04E02046FFF76AFF66
:101030000020E0638CE705F0800030B106F080000E
:1010400018B1204600F03AFB82E705F0400030B1CD
:1010500006F0400018B1204600F0E8F978E700BF3C
:1010600076E70000F913000810B504460CB901201A
:1010700010BDA06900B100E000BF94F8390028B9A4
:10108000002084F83800204600F028F8242084F856
:1010900039002068C06820F400502168C8602046EC
:1010A00000F028FA2068006920F490402168086167
:1010B0002068406920F02A00216848612068C068E3
:1010C00040F400502168C8600020E063202084F8CC
:1010D000390084F83A000020CAE7000010B586B055
:1010E000044625492068884244D100BF23488069CE
:1010F00040F00400214988610846806900F004003E
:10110000019000BF00BF00BF0846806940F48040E6
:1011100088610846806900F48040019000BF00BFEC
:1011200000BF0846806940F0010088610846806978
:1011300000F00100019000BF00BF4815029002209E
:101140000390012004900320059002A90C48FFF7AA
:101150001DF94FF4806002900020039002A9084816
:10116000FFF714F92520FFF7DCFA032211462520AA
:10117000FFF7E4FA06B010BD00380140001002404D
:101180000008014010B5034693F83A0020282FD1FB
:1011900001B10AB9012010BD00BF93F83800012841
:1011A00001D10220F7E7012083F8380000BF9962DF
:1011B0009A85DA850020D863222083F83A0000BFA0
:1011C000002083F8380000BF1868C06840F48070C1
:1011D0001C68E0601868406940F001001C686061AC
:1011E0001868C06840F020001C68E0600020D2E76A
:1011F0000220D0E71D4A0168914236D11C49098876
:1012000001F4004189BB1A49098801F4804171B198
:10121000184909780A2903D00021154A118024E0D1
:101220001349098841F40041114A11801DE0114918
:1012300009780D2906D10E49098841F480410C4AEC
:10124000118012E00B490978094A1288C2F30D0295
:10125000094B995406490988491C054A11801146D1
:101260000988C72901DD002111807047003801403D
:101270000C0000200E00002014000020704700BF6A
:10128000FEE7000000B585B000BF1048806940F05F
:1012900010000E4988610846806900F01000009037
:1012A00000BF00BF4FF460700190012002900390D6
:1012B0000320049001224FF460710548FFF7F4F910
:1012C00001A90348FFF762F805B000BD0010024015
:1012D0000010014000BFFEE77047000002480068B0
:1012E000C0F30220704700000CED00E010B50028AC
:1012F00007DA0A07140E054A00F00F031B1FD45427
:1013000003E00A07130E024A135410BD18ED00E063
:1013100000E400E07047000008B508490968C90802
:101320004FF47A72B1FBF2F14143009100BF00BF6C
:1013300000994A1E00920029F9D108BD0000002042
:10134000704730B58FB00546002401200590000499
:1013500006900020079002200C90C1030D910E957D
:1013600005A8FFF781FB04460CB100BFFEE70F2084
:10137000009002200190002002904FF480600390C2
:101380000020049002216846FFF72AFA04460CB1B7
:1013900000BFFEE70FB030BD10B5FFF791F910BDEB
:1013A0001148006840F001000F4908600846406895
:1013B0000E4908400C494860084600680C4908403E
:1013C000094908600846006820F480200860084643
:1013D000406820F4FE0048604FF41F008860C80396
:1013E0000449086070470000001002400000FFF848
:1013F000FFFFF6FE08ED00E070B505466C6A0020C0
:10140000E085E0842046FFF77DFD70BD0168C96876
:1014100021F490710268D1600168496921F00101ED
:1014200002685161202180F83A10704710B50446D7
:101430002068C06820F040002168C860202084F83F
:1014400039002046FFF71AFF002010BD70B5044692
:1014500094F83A0022284AD1A068B0F5805F13D1F1
:10146000A56A206940B920684068C0F30800288058
:10147000A06A801CA06219E020684068C0B2288081
:10148000A06A401CA06211E0206938B92068406859
:10149000C1B2A26A501CA062117007E020684068C7
:1014A00000F07F01A26A501CA0621170E08D401E06
:1014B00080B2E085C8B92068C06820F020002168AB
:1014C000C8602068C06820F480702168C860206807
:1014D000406920F0010021684861202084F83A002A
:1014E0002046FFF787FE002070BD0020FCE70220A9
:1014F000FAE700002DE9F041044600252068006964
:1015000020F44050E1680843216808612169A0681F
:1015100008436169084305432068C06841F20C61D3
:10152000884328432168C8602068406920F44070DF
:10153000A1690843216848615F49206888425CD1FD
:10154000FFF736FA00EBC00101EB0010616889007B
:10155000B0FBF1F6FFF72CFA00EBC00101EB001035
:1015600061688900B0FBF1F06421B0FBF1F000EBA1
:10157000C00101EB0010A6EB8000322101EB00104E
:101580006421B0FBF1F000F0F006FFF711FA00EB78
:10159000C00101EB001061688900B0FBF1F064212B
:1015A000B0FBF1F006EB0016FFF702FA00EBC0010A
:1015B00001EB001061688900B0FBF1F7FFF7F8F963
:1015C00000EBC00101EB001061688900B0FBF1F095
:1015D0006421B0FBF1F000EBC00101EB0010A7EBC0
:1015E0008000322101EB00106421B0FBF1F000F02B
:1015F0000F003044216888605BE0FFF7C9F900EB19
:10160000C00101EB001061688900B0FBF1F6FFF743
:10161000BFF900EBC00101EB001061688900B0FB6D
:10162000F1F06421B0FBF1F000EBC00101EB001020
:10163000A6EB8000322101EB00106421B0FBF1F039
:1016400000F0F006FFF7A4F900EBC00101EB001079
:1016500061688900B0FBF1F06421B0FBF1F006EBAA
:101660000016FFF795F900EBC00101EB001061686F
:101670008900B0FBF1F7FFF78BF900EBC00101EB3C
:10168000001061688900B0FBF1F06421B0FBF1F05B
:1016900000EBC00101EB0010A7EB8000322101EB51
:1016A00000106421B0FBF1F000F00F00304421681D
:1016B0008860BDE8F081000000380140014691F8E3
:1016C000390021282CD18868B0F5805F0FD10A6AD3
:1016D0001088C0F308000B685860086918B9086AD8
:1016E000801C086209E0086A401C086205E00B6A79
:1016F000581C086218780B685860C88C401E80B26D
:10170000C88458B90868C06820F080000B68D860A9
:101710000868C06840F040000B68D860002070473F
:101720000220FCE710B500240C48FFF7F7FB00BFD0
:1017300001E0641C00BF0948FFF7E5FB2028F8D151
:1017400000BF002401E0641C00BF012204490348DB
:10175000FFF718FD0028F6D100BF10BDDC00002007
:101760000E00002000BFFEE700BF704710B5044622
:101770000420FFF799FB0148046010BD040000201D
:1017800030B50446002504E04FF47A7000F004F808
:101790006D1CA542F8D330BD70B5034600224FF052
:1017A000E02675690D4E366803FB06F44FF0E0261F
:1017B000B16910E04FF0E026B06988420BD0884252
:1017C00002D20E1A324402E02E1A0E44324401466E
:1017D000A24200D300E0EDE700BF70BD040000208E
:1017E00010B50246002028E00B5C302B04D0312BD2
:1017F0000BD0322B1FD113E0114B1B680BB9012307
:1018000000E000230E4C236015E00D4B1B1D1B68F0
:101810000BB9012300E00023094C241D23600AE0DA
:10182000074B08331B680BB9012300E00023044C6D
:101830000834236000BF00BF401C9042D4DB10BDC1
:101840009C01224200BF054A126802F04002002AB1
:10185000F9D0C2B2014B1B1D1A607047003801401D
:101860000025FEF735FF4FF4E010FFF76AFD482032
:10187000FFF77CFF4FF4E13000F070F8FFF702FD56
:1018800033E01A48008800F40040C8B117480478D3
:101890003020174908552046FFF7A2FF15A0FEF794
:1018A00095FC00BF174800680068C0F3801000284E
:1018B000F8D015A0FEF78AFC00200C49088014E03F
:1018C000681C85B24FF4FA6095FBF0F100FB1150F3
:1018D00040B90FA0FEF77AFC14A0FEF777FC1AA01F
:1018E000FEF774FC0A20FFF74BFFCAE70C0000204C
:1018F00014000020D6B8C1EED2D1CAD5B5BDA3A17F
:101900000D0A0000DC0000200D0A0D0A0000000096
:10191000CAE4C8EBD7D6B7FBB4AED2D4B7ADD7AA1A
:101920004C4544D7B4CCAC0D0A000000D7D6B7FB69
:1019300030A1A231A1A232B6D4D3A64C454430A1E5
:10194000A231A1A2320D0A00B8DFB9A4323136CAE1
:10195000B5D1E9CAD20D0A0D0A0D0A0010B5044628
:1019600009480A4908600846446000218160C16056
:10197000016181610C214161FFF776FB012204497D
:101980000248FFF7FFFB10BD00380140DC000020DB
:101990000E0000200000000000000000010203040F
:1019A000060708090000000001020304CC19000822
:1019B000000000201400000028010008E0190008C1
:1019C000140000206C0700004401000800A24A0433
:1019D0000000000000000000000000000000000007
:04000005080000ED02
:00000001FF
