:020000040800F2
:10000000C0070020D5010008391B00089B1A000812
:10001000351B00088D040008C523000800000000FF
:10002000000000000000000000000000771B000836
:100030009104000800000000751B0008CF1B000899
:10004000EF010008EF010008EF010008EF010008D0
:10005000EF010008EF010008EF010008EF010008C0
:10006000EF010008EF010008EF010008EF010008B0
:10007000EF010008EF010008EF010008EF010008A0
:10008000EF010008EF010008EF010008EF01000890
:10009000EF010008EF010008EF010008EF01000880
:1000A000EF010008EF010008EF010008EF01000870
:1000B000EF010008EF010008EF010008EF01000860
:1000C000EF010008EF010008EF010008EF01000850
:1000D000EF01000885230008EF010008EF01000888
:1000E000EF010008EF010008EF010008EF01000830
:1000F000EF010008EF010008EF010008EF01000820
:10010000EF010008EF010008EF010008EF0100080F
:10011000EF010008EF010008EF010008EF010008FF
:10012000EF010008EF010008EF010008EF010008EF
:1001300000F002F800F03FF80AA090E8000C8244BA
:100140008344AAF10107DA4501D100F034F8AFF297
:10015000090EBAE80F0013F0010F18BFFB1A43F0A5
:1001600001031847B4230000D4230000103A24BF31
:1001700078C878C1FAD8520724BF30C830C144BF0C
:1001800004680C607047000000230024002500264E
:10019000103A28BF78C1FBD8520728BF30C148BFEA
:1001A0000B607047642900F07780002070471FB50E
:1001B0001FBD10B510BD00F037F91146FFF7F7FF6E
:1001C00002F04CF900F055F903B4FFF7F2FF03BC5D
:1001D00002F0FAF80948804709480047FEE7FEE7C1
:1001E000FEE7FEE7FEE7FEE7FEE7FEE7FEE7FEE7E7
:1001F00004480549054A064B70470000D91B000812
:1002000031010008C0010020C0070020C003002009
:10021000C0030020704700000FB4044910B503AAC2
:10022000029800F0D3F810BC5DF814FB0800002021
:100230002DE9F0410E460446002020622046E16888
:10024000884730B3252805D0D4E901219047206A9A
:10025000401CF2E7E168204600278847050018D0D7
:10026000A5F14100192802D820354FF40067324625
:10027000294620462760FFF795FF40B1012804D0AA
:10028000F61D26F007060836D8E7361DD6E72846BD
:10029000DAE7206ABDE8F0812DE9F0410646002446
:1002A00010687529314616A510D0AFF300800028DC
:1002B00002DA404213A507E031688A0701D512A58A
:1002C00002E0490704D511A5012401E0AFF3008045
:1002D00000210A2206F1240709E0B0FBF2FCB0FB82
:1002E000F2F302FB1C00303078541846491C0028F9
:1002F000F3D123462A463046BDE8F04100F00CB861
:10030000000000002D0000002B0000002000000075
:1003100070477047704770472DE9F0470D46994682
:100320009246044600F124080168880604D5E06975
:1003300021F01001216000E00120A84201DD471BEF
:1003400000E00027A1697A1902EB0900081AA061F0
:100350002078C00602D42046AFF30080002608E0D3
:10036000D4E901211AF806009047206A401C761C47
:1003700020624E45F4DB2078C0060AD52046AFF354
:10038000008006E0D4E9012130209047206A401C1B
:100390002062381EA7F10107F4DC07E0D4E901214F
:1003A00018F805009047206A401C2062281EA5F11D
:1003B0000105F3DC2046AFF300802078000602D56B
:1003C0000220BDE8F0870120FBE70000074B70B575
:1003D0000D467B4400F011F80446284600F020F852
:1003E00010B14FF0FF3070BD204670BD6B20000093
:1003F00001694A1C02610878704700B58FB0CDE9E9
:1004000001310021059105497944CDE903101146D8
:100410006846FFF70DFF0FB000BD0000E5FFFFFFCE
:10042000007B00F080007047754600F02BF8AE4668
:1004300005006946534620F00700854618B020B5F0
:10044000FFF7D6FEBDE820404FF000064FF0000752
:100450004FF000084FF0000B21F00701AC46ACE86C
:10046000C009ACE8C009ACE8C009ACE8C0098D46D9
:10047000704710B50446AFF300802046BDE8104039
:10048000FFF7A2BE004870475C01002000BFFEE7F6
:10049000704731B5002400F0AFF9044600BF00F00A
:1004A000ABF9001B00998842F9D338BD2DE9F84714
:1004B00002460024002000258446002700237BE11B
:1004C0004FF0010808FA03F4D1F8008008EA0400AC
:1004D000A0427DD1DFF8ECA2D1F80480A8EB0A0994
:1004E000D0453AD014DCB8F1030F50D009DCB8F194
:1004F000000F31D0B8F1010F1CD0B8F1020F49D173
:1005000020E0B8F1110F18D0B8F1120F42D11EE05F
:10051000B9F5881F25D006DCB9F5803F20D0B9F5A4
:10052000801F37D11AE0B9F5001F18D0B9F5041FA4
:1005300030D117E0D1F80CC02DE0D1F80C8008F1D3
:10054000040C28E0D1F80C8008F1080C23E0D1F865
:100550000C8008F10C0C1EE000BF00BF00BF00BF04
:1005600000BF00BFD1F80880B8F1000F02D14FF0F2
:10057000040C0BE0D1F80880B8F1010F03D14FF063
:10058000080C146102E04FF0080C546103E04FF0D6
:10059000000C00E000BF00BFFF2801D8904601E03A
:1005A00002F104084646FF2802D84FEA830803E018
:1005B000A3F108084FEA88084746D6F800804FF0B4
:1005C0000F0909FA07F928EA09080CFA07F900E007
:1005D0007AE048EA0908C6F80080D1F8048008F0FB
:1005E0008058B8F1805F6FD100BFDFF8DC81D8F8A8
:1005F000188048F00108DFF8D091C9F81880C84683
:10060000D8F8188008F00108CDF8008000BF00BFBE
:100610004FEAB9384FEA930958F829504FEA8378DE
:100620004FEA18794FF00F0808FA09F825EA08058B
:10063000DFF89881424502D14FF0000824E0DFF84E
:100640009081424502D14FF001081DE0DFF884811E
:10065000424502D14FF0020816E0DFF87C814245A6
:1006600002D14FF003080FE0DFF87081424502D15C
:100670004FF0040808E0DFF86881424502D14FF0EE
:10068000050801E04FF006084FEA83794FEA19792F
:1006900008FA09F848EA0505DFF848814FEA9309A6
:1006A00048F82950D1F8048008F48038B8F5803F24
:1006B0000BD1DFF83481D8F8008048EA0008DFF871
:1006C0002891C9F800800AE075E0DFF81C81D8F8AD
:1006D000008028EA0008DFF81091C9F80080D1F8FE
:1006E000048008F40038B8F5003F0ED1DFF8F88038
:1006F00008F10408D8F8008048EA0008DFF8E8901C
:1007000009F10409C9F800800DE0DFF8DC8008F188
:100710000408D8F8008028EA0008DFF8CC9009F136
:100720000409C9F80080D1F8048008F48018B8F5ED
:10073000801F0ED1DFF8B08008F10808D8F80080DB
:1007400048EA0008DFF8A09009F10809C9F800801C
:100750000DE0DFF8948008F10808D8F8008028EA56
:100760000008DFF8849009F10809C9F80080D1F881
:10077000048008F40018B8F5001F0ED1DFF8688077
:1007800008F10C08D8F8008048EA0008DFF8589013
:1007900009F10C09C9F800800DE0DFF84C8008F180
:1007A0000C08D8F8008028EA0008DFF83C9009F12E
:1007B0000C09C9F800805B1C102BFFF481AEBDE86A
:1007C000F8870000000011100010024000080140EE
:1007D000000C0140001001400014014000180140CD
:1007E000001C014008000140000401400AB1016101
:1007F00001E00B0403617047014800687047000086
:100800001000002002480068401C01490860704741
:100810001000002010B50848006840F0100006499C
:100820000860052000F068F80F2000F007F800F0DD
:1008300017F8002010BD00000020024070B50446EB
:1008400000F0BAF94FF47A71B0FBF1F5284600F0E8
:100850008FFE00222146501E00F010F8002070BDCF
:10086000704700BF00F01F02012191404209920031
:1008700002F1E022C2F8001100BF70472DE9F05FDD
:1008800080460D461646002701F058F907463946BE
:100890002A46334601F00700C0F1070ABAF1040FF7
:1008A00002D94FF0040A01E0C0F1070AD14600F175
:1008B000040ABAF1070F02D24FF0000A01E0A0F1DA
:1008C000030AD4464FF0010A0AFA09FAAAF1010A0A
:1008D0000AEA020A0AFA0CFA4FF0010B0BFA0CFBB7
:1008E000ABF1010B0BEA030B4AEA0B04214640462D
:1008F00001F02CF9BDE8F09F00BF00F00702064BA5
:1009000019684FF6FF031940044B0B4343EA0221D9
:10091000014B196000BF70470CED00E00000FA05C4
:1009200070B504460D4600269F48006800F0070099
:10093000A8420ED29C48006820F0070028439A493C
:1009400008600846006800F00700A84201D00120B6
:1009500070BD207800F00200022807D1934840685B
:1009600020F0F000A168084390494860207800F02A
:10097000010000287CD0606801282DD120200103CF
:1009800091FAA1F1B1FA81F108430121B1EB601FA5
:1009900002D1864800680FE02020010391FAA1F1FE
:1009A000B1FA81F108430221B1EB601F02D17F4807
:1009B000006A01E07D48406A20210A0392FAA2F20F
:1009C000B2FA82F2114301F01F0201219140084066
:1009D000002860D10120BBE7606802282CD12020CC
:1009E000010591FAA1F1B1FA81F108430121B1EBBE
:1009F000601F02D16D4800680FE02020010591FAC8
:100A0000A1F1B1FA81F108430221B1EB601F02D1DB
:100A10006648006A01E06548406A20210A0592FAAA
:100A2000A2F2B2FA82F2114301F01F0201219140B9
:100A3000084078BB01208BE72020022191FAA1F128
:100A4000B1FA81F108430121B1EB601F02D157488F
:100A5000006810E02020022191FAA1F1B1FA81F1A1
:100A600008430221B1EB601F03D15048006A02E045
:100A700054E04E48406A2021022292FAA2F2B2FAD1
:100A800082F2114301F01F0201219140084008B990
:100A900001205DE7FFE74548406820F003006168FA
:100AA000084342494860FFF7A7FE064660680128F0
:100AB00010D108E0FFF7A0FE801B41F28831884288
:100AC00001D9032044E73948406800F00C000428AD
:100AD000F0D123E06068022810D108E0FFF78CFE17
:100AE000801B41F28831884201D9032030E72F482A
:100AF000406800F00C000828F0D10FE008E0FFF794
:100B00007BFE801B41F28831884201D903201FE718
:100B10002648406800F00C000028F0D12248006808
:100B200000F00700A8420ED91F48006820F0070017
:100B300028431D4908600846006800F00700A842E5
:100B400001D0012004E7207800F00400042807D138
:100B50001648406820F4E060E168084313494860A3
:100B6000207800F00800082808D11048406820F4D8
:100B70006050216940EAC1000C49486000F04EF81D
:100B80000A49496801F0F001F02292FAA2F2B2FAA1
:100B900082F2D140064A515CC840064908600F20E5
:100BA000FFF74CFE0020D3E6002002400010024078
:100BB0000025000800000020014800687047000080
:100BC0000000002000B5FFF7F7FF0749496801F46E
:100BD000E0614FF4E06292FAA2F2B2FA82F2D140FE
:100BE000024A515CC84000BD0010024010250008B8
:100BF00000B5FFF7E1FF0749496801F460514FF480
:100C0000605292FAA2F2B2FA82F2D140024A515CE8
:100C1000C84000BD0010024010250008F0B585B0A6
:100C20000FF28C0C9CE8E01001A8A0E8E01024A5CD
:100C30002D68009500210024002200230020214D72
:100C4000696801F00C056DB3042D02D0082D28D180
:100C500001E01D4828E001F470154FF4701696FA73
:100C6000A6F6B6FA86F6F54001AE735D01F480355E
:100C700095B1144D6D6805F400354FF4003696FAC1
:100C8000A6F6B6FA86F6F5401DF805400E4DB5FB02
:100C9000F4F505FB03F202E00C4D03FB05F21046F0
:100CA00002E000BF084800BF00BF05B0F0BD000073
:100CB00002030405060708090A0B0C0D0E0F10109D
:100CC000010200000010024000127A0000093D00FD
:100CD00038B504460025207800F0010000287CD0BB
:100CE000F848406800F00C0004280CD0F548406833
:100CF00000F00C00082837D1F248406800F480303A
:100D0000B0F5803F30D12020010391FAA1F1B1FA72
:100D100081F108430121B1EB601F02D1E94800686D
:100D20000FE02020010391FAA1F1B1FA81F108430B
:100D30000221B1EB601F02D1E248006A01E0E14804
:100D4000406A20210A0392FAA2F2B2FA82F2114317
:100D500001F01F020121914008400028BFD06068C7
:100D600000283AD1012038BD00BF6068B0F5803F4F
:100D700006D1D448006840F48030D249086028E0A9
:100D8000606858B9CF48006820F48030CD490860C9
:100D90000846006820F4802008601AE06068B0F51A
:100DA000A02F0BD1C748006840F48020C5490860D7
:100DB0000846006840F4803008600AE0C1480068D6
:100DC00020F48030BF4908600846006820F4802085
:100DD000086000BF6068C8B300E06FE0FFF70CFD7B
:100DE000054606E0FFF708FD401B642801D90320F3
:100DF000B9E72020010391FAA1F1B1FA81F108438A
:100E00000121B1EB601F02D1AE4800680FE0202045
:100E1000010391FAA1F1B1FA81F108430221B1EB8A
:100E2000601F02D1A748006A01E0A648406A20215D
:100E30000A0392FAA2F2B2FA82F2114301F01F02FF
:100E40000121914008400028CCD037E0FFE7FFF7B0
:100E5000D3FC054606E0FFF7CFFC401B642801D910
:100E6000032080E72020010391FAA1F1B1FA81F17A
:100E700008430121B1EB601F02D1924800680FE0E6
:100E80002020010391FAA1F1B1FA81F10843022176
:100E9000B1EB601F02D18B48006A01E08948406ACB
:100EA00020210A0392FAA2F2B2FA82F2114301F06F
:100EB0001F020121914008400028CCD1207800F089
:100EC000020002284ED17F48406800F00C0050B16B
:100ED0007C48406800F00C00082844D179484068FC
:100EE00000F4803078BB2020022191FAA1F1B1FA00
:100EF00081F108430121B1EB601F02D17148006804
:100F00000FE02020022191FAA1F1B1FA81F108430A
:100F10000221B1EB601F02D16A48006A01E0694812
:100F2000406A2021022292FAA2F2B2FA82F211431E
:100F300001F01F0201219140084028B120690128D9
:100F400002D001200FE70EE05E48006820F0F800B4
:100F5000F82292FAA2F2B2FA82F261699140084351
:100F60005849086091E02069F0B3012090FAA0F19F
:100F7000B1FA81F1544A42F82100FFF73DFC0546E1
:100F800006E0FFF739FC401B022801D90320EAE6FE
:100F90002020022191FAA1F1B1FA81F10843012147
:100FA000B1EB601F02D1474800680FE0202002210A
:100FB00091FAA1F1B1FA81F108430221B1EB601F6E
:100FC00002D14048006A01E03E48406A20210222E6
:100FD00092FAA2F2B2FA82F2114301F01F02012149
:100FE00091400840002800E00FE0CAD03548006872
:100FF00020F0F800F82292FAA2F2B2FA82F26169C5
:10100000914008432F4908603FE00020012191FAF8
:10101000A1F1B1FA81F12C4A42F82100FFF7ECFB73
:10102000054606E0FFF7E8FB401B022801D9032034
:1010300099E62020022191FAA1F1B1FA81F1084349
:101040000121B1EB601F02D11E4800680FE0202093
:10105000022191FAA1F1B1FA81F108430221B1EB29
:10106000601F02D11748006A01E01648406A20213B
:10107000022292FAA2F2B2FA82F2114301F01F02A6
:101080000121914008400028CCD1207800F00800D0
:1010900008284BD1A069A8B3012191FAA1F0B0FAB8
:1010A00080F0094A02EB8000C0F88014FFF7A4FB2F
:1010B00005460BE0FFF7A0FB401B022806D90320E2
:1010C00051E6000000100240000042426020022170
:1010D00091FAA1F1B1FA81F108430121B1EB601F4E
:1010E00002D1F948006810E06020022191FAA1F1D4
:1010F000B1FA81F108430221B1EB601F03D1F2483C
:10110000006A02E013E0F048406A6021022292FA8D
:10111000A2F2B2FA82F2114301F01F0201219140C2
:1011200008400028C6D00120FFF7B3F941E00020B5
:10113000012191FAA1F1B1FA81F1E44A02EB8101B6
:10114000C1F88004FFF758FB054606E0FFF754FBA3
:10115000401B022801D9032005E66020022191FAF4
:10116000A1F1B1FA81F108430121B1EB601F02D175
:10117000D54800680FE06020022191FAA1F1B1FA90
:1011800081F108430221B1EB601F02D1CE48006A11
:1011900001E0CD48406A6021022292FAA2F2B2FA3E
:1011A00082F2114301F01F02012191400840002802
:1011B000CCD1207800F00400042875D100BFC248CB
:1011C000C06940F08050C049C8610846C06900F05D
:1011D0008050009000BF00BFBD48006840F48070A0
:1011E000BB490860FFF708FB054606E0FFF704FB74
:1011F000401B642801D90320B5E5B548006800F418
:1012000080700028F2D000BFE068012806D1AE4807
:10121000006A40F00100AC49086227E0E06858B974
:10122000A948006A20F00100A74908620846006A40
:1012300020F00400086219E0E06805280BD1A248FC
:10124000006A40F00400A04908620846006A40F0C5
:10125000010008620AE09C48006A20F001009A49F7
:1012600008620846006A20F00400086200BFE068D7
:10127000D0B3FFF7C1FA054608E0FFF7BDFA401BFF
:1012800041F28831884201D903206CE540200221D7
:1012900091FAA1F1B1FA81F108430121B1EB601F8C
:1012A00003D18948006810E058E04020022191FAFB
:1012B000A1F1B1FA81F108430221B1EB601F02D123
:1012C0008148006A01E08048406A4021022292FA87
:1012D000A2F2B2FA82F2114301F01F020121914001
:1012E00008400028C9D039E0FFE7FFF785FA054636
:1012F00008E0FFF781FA401B41F28831884201D9AA
:10130000032030E54020022191FAA1F1B1FA81F1E8
:1013100008430121B1EB601F02D16B4800680FE068
:101320004020022191FAA1F1B1FA81F10843022192
:10133000B1EB601F02D16448006A01E06248406A74
:101340004021022292FAA2F2B2FA82F2114301F093
:101350001F020121914008400028CAD1E0690028FD
:1013600073D05948406800F00C0008286ED0E0693E
:1013700002286CD100204FF0807191FAA1F1B1FAEE
:1013800081F1524A42F82100FFF736FA054606E09D
:10139000FFF732FA401B022801D90320E3E42020A2
:1013A000010591FAA1F1B1FA81F108430121B1EBF4
:1013B000601F02D1444800680FE02020010591FA27
:1013C000A1F1B1FA81F108430221B1EB601F02D112
:1013D0003D48006A01E03C48406A20210A0592FA33
:1013E000A2F2B2FA82F2114301F01F0201219140F0
:1013F00008400028CCD1206AB0F5803F07D13248A0
:10140000406820F40030A16808432F494860D4E9BF
:10141000080108432C49496821F4741108432A49FA
:1014200048600121080690FAA0F0B0FA80F0274A3F
:1014300042F82010FFF7E0F9054609E0FFF7DCF974
:10144000401B022804D903208DE479E076E02CE0EB
:101450002020010591FAA1F1B1FA81F1084301219F
:10146000B1EB601F02D1184800680FE02020010591
:1014700091FAA1F1B1FA81F108430221B1EB601FA9
:1014800002D11148006A01E00F48406A20210A0594
:1014900092FAA2F2B2FA82F2114301F01F02012184
:1014A000914008400028C9D04AE000204FF08071E8
:1014B00091FAA1F1B1FA81F1044A42F82100FFF753
:1014C0009BF905460DE0000000100240000042427A
:1014D00000700040FFF790F9401B022801D903205B
:1014E00041E42020010591FAA1F1B1FA81F108430C
:1014F0000121B1EB601F02D1124800680FE02020EB
:10150000010591FAA1F1B1FA81F108430221B1EB91
:10151000601F02D10B48006A01E00A48406A20219E
:101520000A0592FAA2F2B2FA82F2114301F01F0206
:101530000121914008400028CCD101E0012012E4B3
:10154000002010E400100240042808D14FF0E021F0
:10155000096941F004014FF0E022116107E04FF00A
:10156000E021096921F004014FF0E0221161704788
:1015700070B504462546681EB0F1807F01D3012076
:101580000FE0681E4FF0E02148610F214FF0FF305F
:1015900000F0DCFA00204FF0E021886107200861AC
:1015A000002070BD2DE9F04104460D46164600BFEF
:1015B00094F83800012802D10220BDE8F081012012
:1015C00084F8380000BF022084F8390096B9EB682F
:1015D000D5E90012206800F0A5FB2068806920F0A2
:1015E0000C002168886120688069A9680843216827
:1015F00088613DE0042E13D1EB68D5E90012206824
:1016000000F0D0FB2068806920F440602168886188
:1016100020688069A96840EA01202168886127E084
:10162000082E12D1EB68D5E90012206800F0D9FB32
:101630002068C06920F00C002168C8612068C0697A
:10164000A96808432168C86112E0EB68D5E9001277
:10165000206800F0E4FB2068C06920F44060216845
:10166000C8612068C069A96840EA01202168C86192
:10167000012084F8390000BF002084F8380000BF42
:1016800000BF9AE710B504460CB9012010BD94F8CC
:10169000390028B9002084F83800204600F00CF802
:1016A000022084F83900211D206800F0E5FA0120AD
:1016B00084F839000020E9E710B586B0044600BF81
:1016C0001348C06940F002001149C8610846C0696A
:1016D00000F00200019000BF00BF00BF0846806913
:1016E00040F0080088610846806900F00800019019
:1016F00000BF00BF0220029000200390049003204E
:10170000059002A90348FEF7D1FE06B010BD000007
:1017100000100240000C014030B504460D46012285
:101720002946206800F0F0FA2068006840F00100C7
:1017300021680860002030BD0246002300BF92F8F7
:101740003800012801D102207047012082F83800BA
:1017500000BF31B1042907D0082908D00C290CD1C9
:1017600008E01068436B09E01068836B06E01068BE
:10177000C36B03E01068036C00E000BF00BF00BF54
:10178000002082F8380000BF1846DDE770470146A8
:1017900091F839007047F8B5044600250026206806
:1017A000006800F001052068C06800F4807625B16B
:1017B0001EB1E06B40F00100E06320680068C0F3F8
:1017C00040052068406900F0010625B11EB1E06BBC
:1017D00040F00400E06320680068C0F3800525B194
:1017E0001EB1E06B40F00200E06320680068C0F3C7
:1017F000C00525B11EB1E06B40F00800E063206831
:101800000068C0F340152068C06800F020061DB1D4
:1018100016B1204600F03CFC20680068C0F3C015FB
:101820002068C06800F080061DB116B1204600F0A7
:1018300071FD20680068C0F380152068C06800F062
:1018400040061DB116B1204600F00AFCE06B70B1F5
:1018500000BF20680068009020684068009000BFCA
:1018600000BF012084F839002046FFF78FFFF8BD44
:1018700010B504460CB9012010BDA06900B100E00C
:1018800000BF94F8390028B9002084F838002046B9
:1018900000F026F8022084F839002068C06820F49F
:1018A00000502168C860204600F050FC20680069A4
:1018B00020F49040216808612068406920F02A00E7
:1018C000216848612068C06840F400502168C86001
:1018D0000020E063012084F839000020CCE70000FC
:1018E00010B586B0044625492068884244D100BF1F
:1018F0002348806940F004002149886108468069D6
:1019000000F00400019000BF00BF00BF08468069DE
:1019100040F4804088610846806900F4804001906E
:1019200000BF00BF00BF0846806940F00100886129
:101930000846806900F00100019000BF00BF481513
:10194000029002200390012004900320059002A938
:101950000C48FEF7ABFD4FF480600290002003902E
:1019600002A90848FEF7A2FD2520FEF77AFF032210
:1019700011462520FEF782FF06B010BD0038014059
:10198000001002400008014030B50346002493F8DF
:101990003940012C01D0122C37D101B10AB90120F4
:1019A00030BD00BF93F83800012801D10220F7E7CD
:1019B000012083F8380000BF99629A85DA850020FB
:1019C000D86393F83900122803D1322083F8390004
:1019D00002E0222083F8390000BF002083F838009D
:1019E00000BF1868C06840F480701D68E86018681F
:1019F000406940F001001D6868611868C06840F0E7
:101A000020001D68E8600020CAE70220C8E7000047
:101A10001D4A0168914236D11C49098801F40041F0
:101A200089BB1A49098801F4804171B118490978C4
:101A30000A2903D00021154A118024E0134909889E
:101A400041F40041114A11801DE0114909780D2926
:101A500006D10E49098841F480410C4A118012E0F8
:101A60000B490978094A1288C2F30D02094B9954AF
:101A700006490988491C054A118011460988C72969
:101A800001DD002111807047003801400C0000206A
:101A90000E00002018000020704700BFFEE7000085
:101AA00000B585B000BF2148806940F010001F4993
:101AB00088610846806900F01000009000BF00BFF8
:101AC000FF2001900120029003900320049001A9BF
:101AD0001748FEF7EBFC012211461548FEF786FE7B
:101AE000012202211248FEF781FE01220421104842
:101AF000FEF77CFE012208210D48FEF777FE012249
:101B000010210B48FEF772FE012220210848FEF743
:101B10006DFE012240210648FEF768FE0122802169
:101B20000348FEF763FE05B000BD00000010024050
:101B30000010014000BFFEE7704700000248006847
:101B4000C0F30220704700000CED00E010B5002843
:101B500007DA0A07140E054A00F00F031B1FD454BE
:101B600003E00A07130E024A135410BD18ED00E0FB
:101B700000E400E07047704730B58FB005460024A0
:101B800001200590000406900020079002200C9090
:101B9000C1030D910E9505A8FFF79AF804460CB104
:101BA00000BFFEE70F20009002200190002002906D
:101BB0004FF4806003900020049002216846FEF7F5
:101BC000AFFE04460CB100BFFEE70FB030BD10B54C
:101BD000FEF718FE10BD00001148006840F001003B
:101BE0000F490860084640680E4908400C494860A3
:101BF000084600680C490840094908600846006822
:101C000020F4802008600846406820F4FE00486008
:101C10004FF41F008860C803044908607047000043
:101C2000001002400000FFF8FFFFF6FE08ED00E0A4
:101C30007FB505460C460E480E49086008464460CC
:101C400000218160C5600161FFF71CFD002000904C
:101C5000012001900020029003900C226946054863
:101C6000FFF7A0FC0C210348FFF756FD7FBD0000E5
:101C70000004004020010020002202681D4B984211
:101C80000ED01D4B98420BD0B0F1804F08D01B4BAB
:101C9000984205D01A4B984202D01A4B984203D171
:101CA00022F070024B681A43124B98420ED0124B2E
:101CB00098420BD0B0F1804F08D0104B984205D01D
:101CC0000F4B984202D00F4B984203D122F440723E
:101CD000CB681A4302608B68C3620B688362054B52
:101CE000984202D0044B984201D10B69036301234F
:101CF00043617047002C0140003401400004004063
:101D000000080040000C004030B50023012404FA14
:101D100001F3046A9C430462046A02FA01F52C434D
:101D2000046230BD70B50C46154600210022066ADB
:101D300026F0010606628169026A154EB0420ED095
:101D4000144EB0420BD0B0F1804F08D0124EB042CA
:101D500005D0124EB04202D0114EB04201D1012640
:101D600000E000261EB121F00301294301E041F00B
:101D7000010121F0F001F02606EA0316314322F0BA
:101D80000A0204F00A0632438161026270BD00005B
:101D9000002C0140003401400004004000080040D5
:101DA000000C004070B50C46154600210022066A62
:101DB00026F0100606628169026A21F4407141EA48
:101DC000052121F470414FF4704606EA0336314391
:101DD00022F0A002A02606EA0416324381610262C4
:101DE00070BD70B50C46154600210022066A26F427
:101DF00080760662C169026A21F00301294321F05D
:101E0000F001F02606EA0316314322F420624FF473
:101E1000206606EA04263243C161026270BD70B5D5
:101E20000C46154600210022066A26F480560662FA
:101E3000C169026A21F4407141EA052121F470412F
:101E40004FF4704606EA0336314322F420424FF441
:101E5000204606EA04363243C161026270BD0000CA
:101E60002DE9F0410446002500266000032190FB87
:101E7000F1F000F0FF08002711E000F01FF8054620
:101E80000D49098801EB8100C11700EB9171B5EB99
:101E9000A10F01DD781CC7B2B54200DD2E46201E21
:101EA000A4F10101CCB2E8D1474502DB3046BDE8E0
:101EB000F0810020FBE700001400002010B500F0C6
:101EC0007BF80BE00C480068406A4FF60B618842D3
:101ED00004D909480068406A80B210BD064800680D
:101EE0000069C0F300100028ECD00C210248FFF775
:101EF00023FC80B2F1E7000020010020F0B585B09E
:101F00000746781E81B24FF6FF70FFF791FE00245E
:101F100008E0FFF7D3FF2DF814000A2000F060FA64
:101F2000601CC4B20A2CF4DB002416E0601CC5B2AD
:101F30000FE03DF814003DF81510884207DD3DF82C
:101F400014603DF815002DF814002DF81560681C7C
:101F5000C5B20A2DEDDB601CC4B2092CE6DB0026FD
:101F6000022405E03DF81400304486B2601CC4B27F
:101F7000082CF7DB062096FBF0F00849088008469D
:101F8000018807A0FEF748F904480088B0F5004F23
:101F900002DB012005B0F0BD0020FBE714000020AB
:101FA000747061645F64656661756C745F76616CA2
:101FB0003A25640D0A0000001FB5022000900120A0
:101FC0000190022002900320039069460D48FEF71D
:101FD0006DFA002202210B48FEF708FC052000F0F4
:101FE000FFF96FF0110008490968086100200649EF
:101FF000096848620190029069460248FEF756FA65
:102000001FBD0000000C0140200100202DE9F0411F
:102010000546002603271DB1062700200E4908703B
:102020003846FFF71DFF04460C4800881E308442E6
:1020300006DD0948007800B901260320064908702A
:102040000548007820B104480078401E0249087015
:102050003046BDE8F081000016000020140000208A
:1020600010B504462068C06820F040002168C860B0
:1020700094F83900322803D1222084F8390002E094
:10208000012084F839002046FFF706FD002010BD2E
:1020900070B50446002694F83960222E01D0322E05
:1020A00052D1A068B0F5805F13D1A56A206940B90C
:1020B00020684068C0F308002880A06A801CA062E5
:1020C00019E020684068C0B22880A06A401CA06265
:1020D00011E0206938B920684068C1B2A26A501C7A
:1020E000A062117007E02068406800F07F01A26ADA
:1020F000501CA0621170E08D401E80B2E08508BBCC
:102100002068C06820F020002168C86094F8390079
:10211000322803D1122084F839000EE02068C0680C
:1021200020F480702168C8602068406920F00100B8
:1021300021684861012084F839002046FFF768FCD7
:10214000002070BD0020FCE70220FAE72DE9F041F5
:10215000044600252068006920F44050E1680843E7
:10216000216808612169A0680843616940EA0105A6
:102170002068C06841F20C61884328432168C86028
:102180002068406920F44070A169084321684861D3
:102190005F49206888425CD1FEF72AFD00EBC00150
:1021A00001EB001061688900B0FBF1F6FEF720FD3D
:1021B00000EBC00101EB001061688900B0FBF1F099
:1021C0006421B0FBF1F000EBC00101EB0010A6EBC5
:1021D0008000322101EB00106421B0FBF1F000F02F
:1021E000F006FEF705FD00EBC00101EB0010616891
:1021F0008900B0FBF1F06421B0FBF1F006EB0016B2
:10220000FEF7F6FC00EBC00101EB001061688900ED
:10221000B0FBF1F7FEF7ECFC00EBC00101EB0010A6
:1022200061688900B0FBF1F06421B0FBF1F000EBD4
:10223000C00101EB0010A7EB8000322101EB001080
:102240006421B0FBF1F000F00F0030442168886099
:102250005BE0FEF7B7FC00EBC00101EB001061682A
:102260008900B0FBF1F6FEF7ADFC00EBC00101EB1D
:10227000001061688900B0FBF1F06421B0FBF1F05F
:1022800000EBC00101EB0010A6EB8000322101EB56
:1022900000106421B0FBF1F000F0F006FEF792FCB4
:1022A00000EBC00101EB001061688900B0FBF1F0A8
:1022B0006421B0FBF1F006EB0016FEF783FC00EBA7
:1022C000C00101EB001061688900B0FBF1F7FEF777
:1022D00079FC00EBC00101EB001061688900B0FBE4
:1022E000F1F06421B0FBF1F000EBC00101EB001054
:1022F000A7EB8000322101EB00106421B0FBF1F06C
:1023000000F00F00304421688860BDE8F0810000D3
:102310000038014010B50146002391F83930122BE6
:1023200001D0322B2CD18868B0F5805F0FD10A6ABA
:102330001088C0F308000C686060086918B9086A62
:10234000801C086209E0086A401C086205E00C6A0B
:10235000601C086220780C686060C88C401E80B2E7
:10236000C88458B90868C06820F080000C68E06034
:102370000868C06840F040000C68E060002010BDB4
:102380000220FCE710B500240C48FFF704FA00BF58
:1023900001E0641C00BF0948FFF7F9F90128F8D1F2
:1023A00000BF002401E0641C00BF0122044903486F
:1023B000FFF7EAFA0028F6D100BF10BDE0000020C8
:1023C0000E00002000BFFEE700BF704710B50446B6
:1023D0000420FFF7B9F80148046010BD0400002094
:1023E00030B50446002504E04FF47A7000F004F89C
:1023F0006D1CA542F8D330BD70B5034600224FF0E6
:10240000E02675690D4E366803FB06F44FF0E026B2
:10241000B16910E04FF0E026B06988420BD08842E5
:1024200002D20E1A324402E02E1A0E443244014601
:10243000A24200D300E0EDE700BF70BD0400002021
:1024400000BF054A126802F04002002AF9D0C2B269
:10245000014B1B1D1A607047003801400024FEF735
:10246000D9F94FF4E010FFF787FB4820FFF7AEFFE4
:102470004FF4165000F028F8FFF712FB0620FFF784
:102480003DFD1DE00020FFF7C1FD38B10D4800689B
:1024900008B9012000E000200A490860601CC4B2AD
:1024A0000F2C0AD1002407481438006808B901200D
:1024B00000E000200349143908600A20FFF790FF6C
:1024C000E0E700009401224210B5044609480A4999
:1024D00008600846446000218160C160016181613B
:1024E0000C214161FFF7C4F9012204490248FFF7BA
:1024F0004BFA10BD00380140E00000200E00002023
:1025000000000000000000000102030406070809A3
:10251000000000000102030438250008000000202C
:10252000180000006C010008502500081800002069
:10253000A80700008801000800A24A04000000006B
:10254000000000000000000000000000000000008B
:0400000508000131BD
:00000001FF
